:020000040800F2
:1000000028080020010100080B20000855180008EE
:1000100009200008DD1400085D55000800000000FC
:100020000000000000000000000000003522000871
:10003000DF14000800000000F52000081901000886
:100040001B0100081B0100081B0100081B01000820
:100050001B0100081B0100081B0100081B01000810
:100060001B0100081B0100081B0100081B01000800
:100070001B0100081B0100081B0100081B010008F0
:100080001B0100081B0100081B0100081B010008E0
:100090001B0100081B0100081B0100081B010008D0
:1000A0001B0100081B0100081B0100081B010008C0
:1000B00019240008E93100081B0100081B01000891
:1000C0001B0100081B0100081B0100081B010008A0
:1000D0001B010008694E00081B0100081B010008F5
:1000E0001B0100081B0100081B010008DFF80CD0F1
:1000F00000F08EFC00480047B95B0008280800208B
:100100000648804706480047FEE7FEE7FEE7FEE7B1
:10011000FEE7FEE7FEE7FEE7FEE7FEE7E122000876
:10012000ED000008F0B480EA0102D40F4200B2EB07
:10013000410F02D20246084611464A0042D0C30D82
:10014000DDB2C1F3C752AD1A202D35DAC1F3160165
:1001500041F4000204B15242C5F1200602FA06F150
:100160002A411044B3EBD05F23D0C4B1012DA0EBE2
:10017000C35009DCF0BC4FF0004202EAC352DBB2CC
:1001800000F5000000F068BB400000F1807000EB5B
:10019000C350A0F1807040EAD170490009E04908DD
:1001A00041EAC071A0EBC35000F50000400800EB2D
:1001B000C350F0BC00F047BB6142012202EB410199
:1001C000001BF6E7F0BC704781F00041AAE780F021
:1001D0000040A7E780EA010210B502F000434000AA
:1001E00022D04A001FD0010E01EB1261C0F356006D
:1001F000C2F3560240F4000042F40002A0FB0220C9
:1002000000047F39140400D0401C50EA124001D48D
:100210004000491EC2B20C0604EBD010401C40083E
:10022000802A02D003E0002010BD20F00100002948
:1002300000DA0020184310BD30B480EA010202F059
:10024000004530F0004221F0004013D090B1C30DC2
:10025000D40DC2F31601C0F31600E41A41F40001F4
:1002600040F400027D34914201D3641C00E0490057
:10027000002C02DA30BC002070474FF4000000234D
:10028000914201D3891A034340084FEA4101F7D153
:1002900051B1914202D14FF0004105E002D24FF03E
:1002A000010101E06FF0010103EBC450284430BCB0
:1002B00000F0C9BA420005D0C0F3C7525242914281
:1002C00001DC0020704700EBC15070472DE9FE4F64
:1002D000804681EA0300C00F0C46009021F00041E7
:1002E00023F00045B8EB0200A94105D24046214663
:1002F00090461C460B46024623F00040104347D070
:10030000270DC7F30A00C3F30A510290401A019067
:1003100040286BDAC3F3130040F4801B0098924628
:1003200020B10023D2EB030A63EB0B0B0198594673
:10033000C0F14002504600F055FA06460D465046C0
:100340005946019A00F06DFA10EB08006141002453
:1003500087EA115284EAE7731A4340D0009A62B3E5
:10036000019A012A4FEA075215DC001B61EB0201DA
:100370004FF0004202EA0752CDE90042001C41F56D
:10038000801132462B4600F0A4FA03B0BDE8F08F8E
:1003900040462146F9E7001B61EB0201001C41F5D4
:1003A000801300185B412018A2F5001747EB0301EA
:1003B00040EAD570B6196D4111E06D084FEA360676
:1003C00045EAC0754FEA0752001B61EB0201001CB1
:1003D00041F5801149084FEA300000195141324679
:1003E0002B4603B0BDE8F04F00F064BA009801223C
:1003F00040000023D0EB020263EBE073009821463B
:100400004FEAE074B8EB000061EB0401E9E783F028
:1004100000435BE781F0004158E72DE9FE4F81EA98
:10042000030404F0004421F0004100944FF0000B5D
:1004300023F0004350EA01045ED052EA03045BD08B
:10044000C3F30A54C1F30A552C44A4F2F3340194C3
:10045000A0FB0254C1F3130141F48011C3F3130351
:1004600043F4801301FB024400FB034E840A970A05
:1004700044EA815447EA8357A4FB076802958D0A32
:1004800005FB07854FEA932C04FB0C542705029DBE
:100490004FEA065847EA1637B5EB08056EEB070C2E
:1004A000870E920E47EA811742EA8312A7FB0201E8
:1004B000B6EB0B0164EB00042B0D43EA0C335E1822
:1004C00044EB1C50DA465146E7FB0201C5F3130426
:1004D0004FEA0B3343EA14534FEA0432019C43EAD8
:1004E0000603A4F10C040294009CCDE900B400F0D2
:1004F000F0F903B0BDE8F08F00200146F9E72DE9DF
:10050000F04D81EA030404F0004B21F0004514464D
:100510004FF0000A23F0004150EA050220D054EACF
:1005200001021DD0C5F30A570246C5F31303C1F3F8
:100530001300C1F30A5640F4801543F48013A7EB6F
:100540000608101BD64608F2FD3873EB050002D3EF
:1005500008F1010801E092185B41B8F1000F03DADD
:1005600000200146BDE8F08D00204FF480110646C2
:1005700084460EE0171B73EB050705D3121B63EBD4
:10058000050306434CEA010C49084FEA3000921873
:100590005B4150EA0107EDD152EA030012D082EA32
:1005A000040083EA0501084305D0101BAB4106D2C5
:1005B0000122002306E000224FF0004302E06FF02A
:1005C000010253101AEB06004CEB085110EB0A0025
:1005D00041EB0B01BDE8F04D00F06CB970B521F0B6
:1005E000004303430CD0C1F30A550024D5EB0405A6
:1005F00064EB0403D617AD1AB34102DB00200146B9
:1006000070BD201841EB025170BDC10F80EAE0704F
:100610000844CA079623002100F01EB90EB5C10F89
:1006200080EAE0700844CA07002140F233438DE8B5
:100630000E000A460B4600F04CF903B000BD0EB5A3
:1006400040F2334102910021CDE900110A460B46E8
:1006500000F03FF903B000BD00F0004220F0004080
:10066000C10DC0F3160040F400007F2901DA00201C
:100670007047962903DCC1F19601C84001E0963924
:100680008840002AF4D04042704770B5C1F30A5246
:1006900001F000450024C1F3130140F2FF3341F49F
:1006A00080119A4201DA002070BD40F233439A4231
:1006B000A2F2334203DC524200F0A3F800E0904083
:1006C0002C43F1D0404270BDC1F30A5210B5C1F3C2
:1006D000130140F2FF3341F480119A4201DA002005
:1006E00010BD40F233439A42A2F2334203DC52423D
:1006F00000F087F810BD904010BD00F0004230F0CF
:1007000000400AD0C10D01F56071C0F3160042EA45
:100710000151C2084007114370470020014670474D
:1007200030B5041E71F1000404DB4FF00044404278
:1007300064EB0101141E73F1000405DB1C464FF04D
:100740000043524263EB04038B4208BF824230BD38
:1007500030B5041E71F1000404DB4FF00044404248
:1007600064EB0101141E73F1000405DB1C464FF01D
:100770000043524263EB0403994208BF904230BDEC
:1007800001F0004330B421F0004150EA010206D0EC
:100790000A0DA2F56072C1F31301002A02DC30BC1D
:1007A00000207047440F44EAC104C100E01830BC87
:1007B00000EBC25000F047B830B50B4601460020B0
:1007C0002022012409E021FA02F59D4205D303FA13
:1007D00002F5491B04FA02F52844151EA2F1010294
:1007E000F1DC30BD202A04DB203A00FA02F10020BF
:1007F00070479140C2F1200320FA03F3194390405F
:100800007047202A04DB203A21FA02F000217047C9
:1008100021FA02F3D040C2F1200291400843194668
:100820007047202A06DBCB17203A41FA02F043EA50
:10083000E07306E041FA02F3D040C2F12002914099
:100840000843194670470029A8BF7047401C49005B
:1008500008BF20F00100704710B4B0FA80FC00FA25
:100860000CF050EA010404BF10BC704749B1CCF150
:10087000200421FA04F411FA0CF118BF01212143DC
:100880000843A3EB0C01CB1D4FEA00614FEA102097
:1008900042BF002010BC704700EBC3501044002939
:1008A000A4BF10BC7047401C490008BF20F00100E5
:1008B00010BC704710B5141E73F1000408DA401C18
:1008C00041F1000192185B411A4301D120F001006F
:1008D00010BD2DE9F04D92469B4611B1B1FA81F25F
:1008E00002E0B0FA80F220329046FFF77BFF044628
:1008F0000F4640EA0A0041EA0B0153465A460843B4
:1009000013D0114653EA010019D0C8F140025046F5
:10091000FFF777FF05460E46504659464246FFF719
:1009200061FF084305D0012004E020463946BDE8B8
:10093000F08D0020054346EAE0762C4337430A98C1
:100940006305E40AA0EB08000022FD0A44EA4754CC
:100950000A3002D500200146E9E701051019694176
:10096000DDE9084500196941BDE8F04DA2E72DE930
:10097000F04D00231A461B1A8A4103DB0020014672
:10098000BDE8F08DC1F30A52C1F3130141F48015A3
:100990004FF0000BD10702D100186D41521E002705
:1009A000044640F2FF11384601EB620A3E4680469B
:1009B000024600204FF48011FFF723FFC219714156
:1009C000BB1846EB0100B4EB030C75EB000C04D331
:1009D000E41A65EB000517460E46241908F10100DC
:1009E0006D4180463428E3DDF91946EB0600091B0A
:1009F000A84103D24FF0FF32134601E00022134614
:100A00001BEB070046EB0A51BDE8F04DFFF752BF64
:100A1000064C074D06E0E06840F0010394E807004B
:100A200098471034AC42F6D3FFF764FBC05F000870
:100A3000E05F000830B58C1810F8012B12F00F039E
:100A400001D110F8013B120906D110F8012B03E087
:100A500010F8015B01F8015B5B1EF9D101E001F8C0
:100A6000013B521EFBD1A142E6D3002030BD000065
:100A70002DE9F04F8E4D8F4E8F4F287887B0002490
:100A800020B101283AD0022846D0BFE08B4900228D
:100A9000B146D1E900013346FFF7BFFCDFF820A2E1
:100AA000B84652463B46FFF72AFDFFF769FE074668
:100AB000844800224B46D0E900613046FFF7ADFC88
:100AC00052464346FFF71BFDFFF75AFE06467E4897
:100AD00000224B46D0E9001C08466146FFF79DFC0A
:100AE00052464346FFF70BFDFFF74AFE00940023F2
:100AF0003A463146019400F093FC09E000940194D9
:100B000002940394AB896A892989E88800F02AFB5A
:100B10002878401C287079E06D4900226B4BD1E9A0
:100B20000001FFF77AFCFFF7B0FD6A490FFA80FA7F
:100B30000022D1E90001B3463346FFF76EFC664A56
:100B40005D4BFFF7DCFC0022604BFFF766FCFFF714
:100B50009CFD62490FFA80F90022D1E900015B4651
:100B6000FFF75BFC5C4A544BFFF7C9FC0022574B74
:100B7000FFF753FCFFF789FD0FFA80F8D5E908016C
:100B800000225B46FFF749FC534A4B4BFFF7B7FC8B
:100B900000224E4BFFF741FCFFF777FD07B2D5E986
:100BA000060100225B46FFF738FC4B4A424BFFF739
:100BB000A6FC0022454BFFF730FCFFF766FD06B2AE
:100BC000D5E9040100225B46FFF727FC424A3A4B75
:100BD000FFF795FC00223D4BFFF71FFCFFF755FD8B
:100BE0000FFA80FC3E48CDE904A4CDE90289B0F9B2
:100BF0000A20B0F90810CDE90012C0883A464042F8
:100C000003B23146604600F0A1FB2C7035480178F4
:100C100019B1047007B0BDE8F08FC17889B1C47014
:100C2000304802AD4230D0E906238168046A85E885
:100C30001E00F0E80312CDE9001290E80E0001203A
:100C400012E0017999B10471264802AD6630D0E90D
:100C500007348168826985E81E00F0E80312CDE957
:100C6000001290E80E00022000F0CAFAD2E74179A3
:100C70000029CFD01C494471D1E90001FFF780FD64
:100C80001A490546D1E90001FFF77AFD18490646E1
:100C9000D1E90001FFF774FD80F000410594029452
:100CA0000394049400942B46324603200194DBE71E
:100CB000B001002000806640FB2109406800002050
:100CC000EA2E44542002002050020020000014406C
:100CD0006000002058000020F1D4C85348000020D4
:100CE000400300209E03002068010020C000002077
:100CF000B80000202DE9F04100250A4604462846A8
:100D0000491E04E0235C401C2B44DDB2C0B2884283
:100D1000F8DBA01810F8010CA8427DD12078AA2891
:100D20007AD16078AF2877D1A078022826D12279AD
:100D30000120C249012A05D1C87008714871887123
:100D4000C87108722279A02A00D108702079A128E0
:100D500014D1BB4E0021304603F026FD0021304661
:100D600003F080FD0021304603F0BCFD0021304639
:100D700003F0E8FD0021F00402F040FCA078B14F40
:100D8000DFF8C48210287DD120796179000200B299
:100D90000843FFF743FC3A464346FFF73EFBFFF7A5
:100DA000EFFCA64E4236F060A079E179000200B275
:100DB0000843FFF733FC3A464346FFF72EFBFFF7A5
:100DC000DFFC3061207A617A000200B20843FFF74D
:100DD00025FC3A464346FFF720FBFFF7D1FC706144
:100DE000A07AE17A000200B20843FFF717FC3A4606
:100DF0004346FFF712FBFFF7C3FC3060207B617BAB
:100E0000000200B20843FFF709FC3A464346FFF7E9
:100E100004FBFFF7B5FC00E00DE17060A07BE17B17
:100E2000000200B20843FFF7F9FB3A464346FFF7DA
:100E3000F4FAFFF7A5FCB060207C617C000200B2F0
:100E40000843FFF7EBFB3A464346FFF7E6FAFFF7A6
:100E500097FCB061A07CE17C000200B20843FFF780
:100E6000DDFB3A464346FFF7D8FAFFF789FCF0610D
:100E7000207D617D000200B20843FFF7CFFB3A46B8
:100E8000434600E008E0FFF7C8FAFFF779FC30625C
:100E9000A078294600F02EF9A07811287DD120797C
:100EA0006179000200B20843FFF7B8FB3A464346B7
:100EB000FFF7B3FAFFF764FC604E6636F060A07986
:100EC000E179000200B20843FFF7A8FB3A46434627
:100ED000FFF7A3FAFFF754FC3061207A617A000231
:100EE00000B20843FFF79AFB3A464346FFF795FAEC
:100EF000FFF746FC7061A07AE17A000200B2084375
:100F0000FFF78CFB3A464346FFF787FAFFF738FCBA
:100F10003060207B617B000200B20843FFF77EFB5C
:100F20003A464346FFF779FAFFF72AFC7060A07B48
:100F3000E17B000200B20843FFF770FB3A464346EC
:100F4000FFF76BFAFFF71CFCB060207C617C0002AD
:100F500000B20843FFF762FB3A464346FFF75DFAEB
:100F6000FFF70EFCB061A07CE17C000200B20843F8
:100F7000FFF754FB3A464346FFF74FFAFFF700FCF2
:100F8000F061207D617D000200B20843FFF746FB5F
:100F90003A464346FFF741FA00E006E0FFF7F0FB70
:100FA0003062A078294600F0A5F8A07812282ED14A
:100FB00020796179000200B20843FFF72FFB3A461F
:100FC000224BFFF72AFA224AC2E90001A079E1790F
:100FD000000200B20843FFF721FB3A46464643466B
:100FE000FFF71BFA1B4AC2E90001207A617A00026E
:100FF00000B20843FFF712FB3A463346FFF70DFAFB
:10100000154AC2E90001A078294600F073F8A078DB
:10101000132802D1294600F06DF8A078142802D1D7
:10102000294600F067F8A078152804D12946BDE8C4
:10103000F04100F05FB8BDE8F08100009E030020A1
:1010400000080040FCA9F1D24D62503F4D6250BFF4
:10105000B8000020C00000206801002030B4234CFC
:10106000234A0023E17851B101290FD0022913D07E
:10107000032917D004291DD005292BD034E0AA2834
:1010800032D10121E170107030BC7047AF282BD1F4
:101090000221E1705070F7E7F12825D20321E170B9
:1010A0009070F1E732281FD20421E170D070607097
:1010B000A370E9E76178B9B1491E11F0FF036370CD
:1010C000A1780A4401F101011071A170DCD1052061
:1010D000E070D9E7E370A1780A44491D107130BC73
:1010E000C9B20348FFF706BEE370CDE7B0010020A8
:1010F0006C03002030B40C4BAA2400221C705C70DE
:10110000EF249C700224DC70187159711046195C30
:10111000401C1144C0B2CAB20628F8D39A7130BC40
:101120000721014800F002B8AB0300202DE9F0418F
:10113000DFF82C800D4606460024A8F104070AE0DB
:10114000315DA8F800108021384603F0A3FF002885
:10115000F9D0641CE4B2AC42F2D1BDE8F0810000E9
:10116000043801403FB42548AA2110230170417082
:10117000062181709DF8011001719DF800104171E8
:101180009DF8051081719DF80410C1719DF809103A
:1011900001729DF8081041729DF80D1081729DF842
:1011A0000C10C1729DF8191001739DF8181041734D
:1011B0009DF81D1081739DF81C10C1739DF82110BE
:1011C00001749DF8201041749DF8251081749DF8DC
:1011D0002410C174C37000221421084B00201C5C31
:1011E000401C2244C0B2D2B28842F8D35A5404B050
:1011F000024830BC491CFFF799BF0000AB03002038
:101200002DE9FF4F81B00A460FA94E4C91E8800F9F
:10121000AA21217061700F304B4EA070002531461D
:101220001046FEF7D7FFFFF717FAADF800009DF85C
:10123000010020719DF80000607131460398FEF7AF
:10124000C9FFFFF709FAADF800009DF80100A07191
:101250009DF80000E07131460498FEF7BBFFFFF7F0
:10126000FBF9ADF800009DF8010020729DF8000028
:10127000607231460E98FEF7ADFFFFF7EDF9ADF85D
:1012800000009DF80100A0729DF80000E072314658
:101290003846FEF79FFFFFF7DFF9ADF800009DF835
:1012A000010020739DF80000607331464046FEF750
:1012B00091FFFFF7D1F9ADF800009DF80100A07390
:1012C0009DF80000E07331464846FEF783FFFFF7C4
:1012D000C3F9ADF800009DF8010020749DF80000EE
:1012E000607431465046FEF775FFFFF7B5F9ADF86B
:1012F00000009DF80100A0749DF80000E0743146E4
:101300005846FEF767FFFFF7A7F9ADF800009DF814
:10131000010020759DF80000607512201621E07014
:1013200000202246135C401C2B44C0B2DDB2884230
:10133000F8D3555405B00348BDE8F04F491CFFF7FA
:10134000F5BE0000AB03002000007A442DE9F80749
:1013500008ACAA2694E88017304C002526706670E9
:101360000226A670ADF800009DF8010020719DF8DE
:1013700000006071ADF800109DF80100A0719DF8AB
:101380000000E071ADF800209DF8010020729DF88A
:1013900000006072ADF800309DF80100A0729DF869
:1013A0000000E072ADF800709DF8010020739DF818
:1013B00000006073ADF800809DF80100A0739DF8F7
:1013C0000000E073ADF800909DF8010020749DF8D6
:1013D00000006074ADF800A09DF80100A0749DF8B5
:1013E0000000E074ADF800C09DF8010020759DF884
:1013F0000000607512201621E07000202246135C68
:10140000401C2B44C0B2DDB28842F8D35554BDE82D
:10141000F8070248491CFFF789BE0000AB03002013
:101420002DE9FC472B4CDDE90A788946AA21019376
:10143000217061700121284EA1709246002531462D
:10144000FEF7C8FEFFF708F9ADF800009DF80100AF
:1014500020719DF80000607131464846FEF7BAFEE3
:10146000FFF7FAF8ADF800009DF80100A0719DF8B3
:101470000000E07131465046FEF7ACFEFFF7ECF895
:10148000ADF800009DF8010020729DF80000607228
:101490009DF80700A0729DF80600E0729DF8050017
:1014A00020739DF804006073A77384F80F800C20EC
:1014B0001021E07000202246135C401C2B44C0B277
:1014C000DDB28842F8D35554BDE8FC470148491CB9
:1014D000FFF72CBEAB0300200000C842FEE77047B8
:1014E0002DE9F0410446464800260D46844215D0B9
:1014F0004448844212D0444884420FD04348844236
:101500000CD04348844209D04248844206D0424825
:10151000844203D0B22141A004F0D6FAE87888B121
:1015200004280FD028280DD048280BD0142809D023
:10153000102807D01C2805D0182803D0B32137A0C5
:1015400004F0C2FA288818B9B42134A004F0BCFA17
:10155000E87800F00F07C0060CD5A878012807D05E
:10156000022805D0032803D0BB212CA004F0ACFA3C
:10157000A878074328784FF00F0C10F0FF0F4FF0BA
:10158000010E1BD021682A880EFA06F00240824222
:1015900010D1B2000CFA02F321EA030307FA02F1B8
:1015A000EA781943282A02D0482A02D002E0606172
:1015B00000E02061761C082EE5D321602888FF28F2
:1015C0001CD96168002000F108030EFA03F22B8891
:1015D000134093420ED183000CFA03F6B14307FA8D
:1015E00003F6EB783143282B00D16261EB78482B6E
:1015F00000D12261401C0828E5D36160BDE8F0817C
:1016000000080140000C014000100140001401409E
:1016100000180140001C0140002001407372635C0F
:1016200073746D3332663130785F6770696F2E6323
:101630000000000070B50546274800260C4685428C
:1016400016D02648854213D02548854210D025481B
:1016500085420DD0244885420AD02448854207D0CF
:101660002348854204D04FF48F7122A004F02CFA55
:10167000012C2AD0022C28D0042C26D0082C24D0CF
:10168000102C22D0202C20D0402C1ED0802C1CD0FE
:10169000B4F5807F19D0B4F5007F16D0B4F5806F13
:1016A00013D0B4F5006F10D0B4F5805F0DD0B4F551
:1016B000005F0AD0B4F5804F07D0B4F5004F04D0D6
:1016C00040F21F110BA004F0FFF9A868204200D0DF
:1016D0000126304670BD000000080140000C0140AA
:1016E000001001400014014000180140001C01409E
:1016F000002001407372635C73746D333266313065
:10170000785F6770696F2E630000000070B5044653
:1017100011480D46844216D01048844213D0104818
:10172000844210D00F4884420DD00F4884420AD022
:101730000E48844207D00E48844204D040F279110A
:101740000CA004F0C1F925B94FF4BD7109A004F053
:10175000BBF9656170BD000000080140000C01404C
:10176000001001400014014000180140001C01401D
:10177000002001407372635C73746D3332663130E4
:10178000785F6770696F2E630000000070B50446D3
:1017900011480D46844216D01048844213D0104898
:1017A000844210D00F4884420DD00F4884420AD0A2
:1017B0000E48844207D00E48844204D040F269119A
:1017C0000CA004F081F925B94FF4B57109A004F01B
:1017D0007BF9256170BD000000080140000C01404C
:1017E000001001400014014000180140001C01409D
:1017F000002001407372635C73746D333266313064
:10180000785F6770696F2E630000000010B500F00C
:10181000ADF8D02000F01AF93B2000F017F900F0E5
:10182000A5F8D12000F012F9094800F039F800F0CD
:10183000D1F8074A002002F10E0132F810305BBAED
:1018400021F81030401CC0B20728F6D310BD0000AC
:1018500050030020FEE7000038B50121092000F008
:1018600075FC4FF4C050ADF8000002208DF8020066
:101870001420094C8DF8030069462046FFF730FE1E
:10188000A1142046FFF782FFE1142046FFF77EFFF8
:101890000248401EFDD138BD00080140A08601006D
:1018A0002DE9F047304E814600274FF4006A4FF48F
:1018B000805851463046FFF769FF41463046FFF7F2
:1018C00025FF0024254641463046FFF75FFF0A20EA
:1018D000401EFDD16006040E51463046FFF7AAFEB9
:1018E00008B144F0010441463046FFF70FFF0A20DB
:1018F000401EFDD16D1CEDB2082DE4D309F8074060
:1019000000F086F87F1CFFB20D2FD2D35746514608
:101910003046FFF73BFF41463046FFF7F7FE002415
:10192000BA462546474639463046FFF72FFF0A207C
:10193000401EFDD16006040E51463046FFF77AFE88
:1019400008B144F0010439463046FFF7DFFE0A20B3
:10195000401EFDD16D1CEDB2082DE4D389F80D4079
:10196000BDE8F04700F0C2B80008014070B5184E5D
:101970004FF4006421463046FFF708FF0A21491E54
:10198000FDD14FF4805529463046FFF7FFFE0A216E
:10199000491EFDD121463046FFF74CFEA8B1214635
:1019A0003046FFF7B3FE0A22521EFDD129463046CB
:1019B000FFF7ACFE0A22521EFDD121463046FFF74A
:1019C00039FE002800D0022070BD012070BD00004B
:1019D0000008014070B50D4D4FF4006421462846C3
:1019E000FFF794FE0A22521EFDD14FF48051284683
:1019F000FFF7CCFE0A22521EFDD121462846FFF7F2
:101A0000C5FE0A20401EFDD170BD00000008014047
:101A100070B50D4C4FF400612046FFF777FE0A21A8
:101A2000491EFDD14FF4805529462046FFF7AEFEF2
:101A30000A22521EFDD129462046FFF767FE0A20E2
:101A4000401EFDD170BD0000000801402DE9F041AD
:101A5000254E05464FF4805739463046FFF756FE6F
:101A600000244FF4006828064146304602D5FFF7AF
:101A70008DFE01E0FFF74AFE6806050E0A20401EB3
:101A8000FDD139463046FFF781FE0A20401EFDD1C8
:101A900039463046FFF73AFE0A20401EFDD1641C4D
:101AA000E4B2082CDFD3444641463046FFF76EFED1
:101AB0000A21491EFDD139463046FFF767FE0A214B
:101AC000491EFDD121463046FFF7B4FD00283946B6
:101AD000304604D0FFF71AFE0020BDE8F081FFF782
:101AE00015FE0120F9E700000008014070B50D4C1B
:101AF0004FF400612046FFF749FE0A21491EFDD13F
:101B00004FF4805529462046FFF740FE0A22521E18
:101B1000FDD129462046FFF7F9FD0A20401EFDD1E0
:101B200070BD00000008014010B5FFF71FFFD02076
:101B3000FFF78CFF1C20FFF789FF1820FFF786FFB7
:101B4000BDE81040FFF746BF10B5FFF70FFFD020EC
:101B5000FFF77CFF6B20FFF779FF0120FFF776FF8F
:101B6000BDE81040FFF736BF10B5FFF7FFFED020ED
:101B7000FFF76CFF1B20FFF769FF0020FFF766FFF0
:101B8000BDE81040FFF726BF10B5FFF7EFFED020ED
:101B9000FFF75CFF3720FFF759FFB220FFF756FF32
:101BA000BDE81040FFF716BF10B5FFF7DFFED020ED
:101BB000FFF74CFF3820FFF749FF0120FFF746FFF2
:101BC000BDE81040FFF706BF10B500F00EF8FFF7B4
:101BD000BBFFFFF7C9FFFFF7A7FF00F016F8FFF7FD
:101BE000D3FFBDE81040FFF7DFBF10B5FFF7BEFE23
:101BF000D020FFF72BFF6B20FFF728FF0120FFF716
:101C000025FFBDE81040FFF7E5BE10B5FFF7AEFEBB
:101C1000D020FFF71BFF6A20FFF718FF0020FFF717
:101C200015FFBDE81040FFF7D5BE00002DE9FF4FBE
:101C300081B0F04CDDE90E65994690468B468246B0
:101C400013F0FF4F05D116F0FF4F02D115F0FF4FF3
:101C50007ED029462846FEF7BDFA31460090084658
:101C6000FEF7B8FA074649460846FEF7B3FA394682
:101C7000FEF758FA0099FEF755FAFEF73EFD04F01C
:101C80004FF902460B460020DB49FEF738FCFEF711
:101C900077FD074601464846FEF79CFA0490394610
:101CA0003046FEF797FA0E9039462846FEF792FA2C
:101CB00021698146A068FEF78DFA61690546E068F2
:101CC000FEF788FA2946FEF77FFA61690746206920
:101CD000FEF780FAE1680546A068FEF77BFA294620
:101CE000FEF720FA616906466069FEF773FAA1689B
:101CF0000546A068FEF76EFA4FF07C51FEF764FAD5
:101D00002946FEF70FFA054631464846FEF762FAC5
:101D1000009029460E98FEF75DFA0099FEF754FAF6
:101D2000009029460498FEF755FA0546394648467C
:101D3000FEF750FA2946FEF747FA814639460E98D3
:101D4000FEF748FA054631460498FEF743FA00E0EC
:101D500055E02946FEF738FA05466068B0F5000FF1
:101D600031DB00996068FEF735FAA44E3146FEF784
:101D700031FAA169FEF7D6F9A06149466068FEF71D
:101D800029FA3146FEF726FAE169FEF7CBF9E06160
:101D900029466068FEF71EFA3146FEF71BFA216AF3
:101DA000FEF7C0F92062A1695046FEF7BBF9E16970
:101DB00082465846FEF7B6F9216A83464046FEF74A
:101DC000B1F9804603E00020A061E0612062009943
:101DD0002068FEF7FFF95146FEF7A4F9824649460E
:101DE0002068FEF7F7F95946FEF79CF98346294625
:101DF0002068FEF7EFF94146FEF794F98046804DE2
:101E000050462946FEF7E6F9019029465846FEF766
:101E1000E1F9029029464046FEF7DCF9A7688346BF
:101E2000E568D4F81080666959463046FEF7D2F965
:101E3000824640460299FEF7CDF9814685F0004082
:101E40000199FEF7C7F94946FEF7BEF95146FEF77C
:101E5000BBF9A168FEF766F9A06030460299FEF76B
:101E6000B9F9824659464046FEF7B4F981463946EB
:101E70000198FEF7AFF94946FEF754F95146FEF7CF
:101E8000A3F9E168FEF74EF9E06031460198FEF7EC
:101E9000A1F9814659462846FEF79CF90646384680
:101EA0000299FEF797F93146FEF78EF94946FEF79B
:101EB00039F92169FEF736F9206141460198FEF7AC
:101EC00089F9064628460299FEF784F905465946DF
:101ED0003846FEF77FF92946FEF724F93146FEF72A
:101EE00073F96169FEF71EF9606161696069FEF767
:101EF00071F9216907462069FEF76CF9E168064629
:101F0000E068FEF767F9A1680546A068FEF762F988
:101F10002946FEF707F93146FEF704F93946FEF780
:101F200001F903F02FFE05460146A068FEF752F9BD
:101F3000A0602946E068FEF74DF9E0602946206977
:101F4000FEF748F9206129466069FEF743F96061B0
:101F50006169E068FEF73EF921690546A068FEF771
:101F600039F92946FEF730F90121FEF7A3F9FEF70A
:101F7000C4FB03F071FC234E4FF000552A46334654
:101F8000FEF74BFAC4E90A0161692069FEF722F9FC
:101F9000E1680746A068FEF71DF93946FEF7C2F86A
:101FA0000121FEF787F9FEF7A8FB03F055FC2A464E
:101FB0003346FEF732FAC4E90C016169A068FEF706
:101FC00009F921690746E068FEF704F93946FEF78A
:101FD000FBF80121FEF76EF9FEF78FFB03F03CFCE6
:101FE0002A463346FEF719FAC4E90E0105B0BDE8EA
:101FF000F08F0000D80100200000F03F5007AC3BFC
:1020000050072C3BDCA54C40FEE7704770B50446FA
:10201000C0780F2528B1012803D075211FA003F037
:1020200053FD6078102803D376211CA003F04CFDEB
:10203000A078102803D3772118A003F045FDE0789D
:102040000122F8B118480068617800F4E060C0F53A
:10205000E060000AC0F10403C540A0789940284020
:1020600008432178000101F1E02181F80004207883
:1020700000F01F018A404009800000F1E020C0F814
:10208000002170BD207800F01F018A4040098000C7
:1020900000F1E020C0F8802170BD00007372635C25
:1020A0006D6973632E6300000CED00E010B504460B
:1020B000B0F5E06F0FD0B4F5C06F0CD0B4F5A06FE1
:1020C00009D0B4F5806F06D0B4F5407F03D063210A
:1020D00003A003F0F9FC054804430548046010BD63
:1020E0007372635C6D6973632E6300000000FA0510
:1020F0000CED00E07047000070B504460C480D463A
:10210000044200D124B940F269410AA003F0DCFC8A
:102110000D4E4DB1012D04D040F26A4105A003F0EF
:10212000D3FCF069204301E0F069A043F06170BD89
:10213000003601817372635C73746D3332663130C3
:10214000785F7263632E63000010024070B504462E
:102150000C480D46044200D124B940F24A410AA07D
:1021600003F0B2FC0D4E4DB1012D04D040F24B41B5
:1021700005A003F0A9FCB069204301E0B069A043C9
:10218000B06170BD0200C0FF7372635C73746D3325
:1021900032663130785F7263632E63000010024054
:1021A00030B5204A5168204B11F00C0103D00429AE
:1021B00001D0082901D0036012E05168536801F48E
:1021C00070114FF0020413F4803F04EB914102D0F0
:1021D00053689B0301D5154B00E0134B5943016035
:1021E00051680F2303EA1111114B5C5C0168E14057
:1021F00041605468072505EA14241C5D21FA04F4A3
:102200008460546805EAD4241B5DD940C1605268DB
:10221000032303EA9232064B1B1F9A5CB1FBF2F1D7
:10222000016130BD0010024000127A0000093D003B
:1022300004000020704700000CB5002226480092E0
:102240000192016841F4803101604FF4A06301689C
:1022500001F4003101910099491C0091019911B9D3
:1022600000999942F3D10168890333D50121019185
:102270001A490A6842F010020A600A6822F0030252
:102280000A600A6842F002020A60416841604168DF
:102290004160416841F480614160416821F47C11F2
:1022A0004160416841F4E8114160016841F080718A
:1022B000016001688901FCD5416821F0030141609A
:1022C000416841F0020141604168C1F38101022986
:1022D000FAD10CBD01920CBD00100240002002405A
:1022E0000F4810B5016841F00101016041680D4AD5
:1022F0001140416001680C4A11400160016821F4FD
:1023000080210160416821F4FE0141604FF41F010A
:102310008160FFF791FF05494FF00060086010BD34
:10232000001002400000FFF8FFFFF6FE08ED00E09D
:1023300070B5048C24F001040484058B048C4FF6E2
:10234000FF7606EA0313134325F0F3050E4A2B43E9
:1023500090420ED00D4A90420BD0B0F1804F08D081
:102360000B4A904205D00B4A904202D00A4A904252
:1023700002D124F0020201E024F00A020A4342F0F2
:1023800001010383018470BD002C01400034014031
:102390000004004000080040000C0040F0B5048C30
:1023A00024F010040484078B048C4FF6FF7527F487
:1023B000734705EA03333B4305EA02221A43114BF4
:1023C00005EA011698420ED00F4B98420BD0B0F19F
:1023D000804F08D00D4B984205D00D4B984202D04B
:1023E0000C4B984205D124F02001314341F01001FB
:1023F00004E024F0A0030B4343F0100102830184A6
:10240000F0BD0000002C01400034014000040040F9
:1024100000080040000C00402DE9F04F8BB0202157
:10242000FE48FFF7B3F90121880701F077F8FC486F
:1024300003F084FBFA4CB4F90400FEF7E6F80090D0
:10244000B4F90200FEF7E1F80190B4F90000FEF7DC
:10245000DCF88346B4F90A00FEF7D7F8DFF8C48346
:102460004146FDF7B7FEFEF748F9DFF8BC93DFF809
:10247000BCA34A465346FDF7D0FFED4DD5E91A23DC
:10248000FDF7C5FFFEF77CF90746B4F90800FEF733
:10249000BCF84146FDF79EFEFEF72FF94A4653462B
:1024A000FDF7BBFFD5E91823FDF7B1FFFEF768F98B
:1024B0000646B4F90600FEF7A8F84146FDF78AFE85
:1024C000FEF71BF94A465346FDF7A7FFD5E9162349
:1024D000FDF79DFFFEF754F9DDE90021CDE900127B
:1024E0005B463A463146FFF7A1FBD24C0220A4F1ED
:1024F000180604F1180506EBC00171E90223C1E9D1
:10250000022304EBC00171E90223C1E9022305EBB8
:10251000C001401E71E902230028C1E90223EADC60
:10252000C548C64AC64BD0E9001080F000470846AF
:102530003946FDF76CFFDFF80CA3C34B5246FDF79D
:102540006CFF0022C14BFDF7DAFF0F46C2498146FE
:10255000B346D1E90001BE4ABE4BFDF758FF5246D3
:10256000B94BFDF75AFF0022B84BFDF7C8FF88466C
:10257000BA4905465246D1E90001B34BFDF74DFF7C
:102580000022B24BFDF7BBFFA94C82460E46D4E9B0
:102590001C2348463946FDF73AFFCBE90001D4E950
:1025A0001E2328464146FDF732FFA24A04F180056A
:1025B0001832C2E90001D5E9002350463146FDF743
:1025C00026FF9C4AC2E9000103F0ECFBA44ED5E9CA
:1025D000080132469C4BFDF720FF00229B4BFDF784
:1025E0008EFFD4E90C23FDF771FEC4E90C01074608
:1025F0008846D5E90A013246934BFDF70EFF0022CB
:10260000924BFDF77CFFD4E91023FDF75FFEC4E990
:1026100010018146874E0220303606F130048A468A
:10262000A4F1180506EBC00171E90223C1E90223F8
:1026300005EBC00171E90223C1E9022304EBC001EB
:10264000401E71E902230028C1E90223EADC79492E
:102650003A4618394346D1E9000C6146FDF7D7FEEA
:10266000C6E9000173484A4618305346D0E9007C59
:1026700038466146FDF7CBFEA34603C46D49D1E958
:1026800000036B4902468031C1E90E031946FDF78C
:10269000BEFEA94603C5674A0320A83202F1200303
:1026A00002F1400702EBC001DFF8B88171E9024591
:1026B000C1E9024503EBC00171E90245C1E90245E8
:1026C00007EBC001401E71E902450028C1E902453F
:1026D000E8DC5348B0F90600FDF7A0FF0022624B8A
:1026E000FDF70DFF524CD4E91623FDF793FECDE91B
:1026F00004014B48B0F90800FDF790FF00225A4B47
:10270000FDF7FDFE2346D3E91823FDF780FECDE952
:1027100002014348B0F90A00FDF780FF0022524B46
:10272000FDF7EDFE2346D3E91A23FDF770FECDE950
:10273000000140484D4AA8304D4BD0E902170846E9
:102740003946FDF76AFE05460F46DDE90401494AB0
:10275000494BFDF762FE2A463B46FDF7B7FD354A79
:102760000746A832424BC2E9000102F12000049161
:10277000D0E9021508463D4A2946FDF74EFE0546BA
:102780000591DDE902013B4A3B4BFDF746FE2A4637
:10279000059BFDF79BFD274A354BC832C2E9000176
:1027A000CDE9020102F12000304AD0E902150846C5
:1027B0002946FDF732FE05460591DDE900012D4A67
:1027C0002D4BFDF72AFE2A46059BFDF77FFD194A92
:1027D000DFF8A8A0E83204F18005C2E90001024652
:1027E000DAE90030DFF898E0C5E91C30DEE90030B6
:1027F000C5E91E302348D0E9003C04F58070C0E9EB
:10280000003C049BCAE90073DDE90203CEE9000342
:102810001C4BC3E900210022434635E0000801407B
:10282000400300200000FA3B5F40D42247DF913F85
:10283000180000203802002008020020D8817346CA
:1028400094F6EA3F4AD8124DFB21094000806640C9
:102850001283C0CAA1C5104000020020100200204F
:1028600038E92F54000004400056BD409A999999C8
:102870009999E13FCDCCCCCCCCCCDC3FC001002041
:10288000C8010020D0010020D5E91601FDF748FF5E
:1028900006D2D5E916010022FD4BFDF759FF0AD3F8
:1028A000D6E90023D5E91601FDF7B7FD002213464E
:1028B000FDF736FF0BD2D6E90001D4E90223FDF77C
:1028C000ACFDD5E91623FDF701FDC5E91601D5E9F3
:1028D0001A0100224346FDF723FF06D2D5E91A016B
:1028E0000022EB4BFDF734FF0AD3D5E91A01DBE9EF
:1028F0000023FDF792FD00221346FDF711FF0BD2D6
:10290000D4E90223DBE90001FDF787FDD5E91A23AD
:10291000FDF7DCFCC5E91A01D5E918010022DD4B01
:10292000FDF7FEFE06D2D5E918010022DA4BFDF7CD
:102930000FFF0AD3D5E91801D9E90023FDF76DFD92
:1029400000221346FDF7ECFE0BD2D4E90223D9E9AD
:102950000001FDF762FDD5E91823FDF7B7FCC5E9D5
:102960001801CE4FD6E90223D7E900673046394631
:10297000FDF74DFDCA4BD3E9022314469A46FDF7F5
:10298000BEFDC84AC2E90E01CDE90201C34930319A
:10299000D1E90001DBE90223CDE90001FDF737FDB4
:1029A00022465346FDF7ABFDBE4AC2E91001CDE910
:1029B0000601D9E90223D9E9000181468B46FDF7DA
:1029C00026FD22465346FDF79AFDB64AB64CC2E9AB
:1029D0001201CDE90401B1484830D0E90012C0E944
:1029E0000212103000F1100AD0E90012C0E9021200
:1029F000DAE90012CAE90212A068FDF77EFEDDE9FD
:102A00000223FDF70AFDCDE908016068FDF775FEB8
:102A1000A34B8033D3E91623FDF7FFFCCDE9020178
:102A2000206880F00040FDF768FE32463B46FDF727
:102A3000F4FCDDE90223FDF7EAFCDDE90823FDF7FC
:102A4000E6FCAAF120020E46C2E900010890606986
:102A5000FDF753FEDDE90623FDF7DFFCCDE90201BA
:102A60002069FDF74AFE05468D488030D0E91A23DB
:102A70002846FDF7D2FC07460691E06880F000404A
:102A8000FDF73BFE0D46DDE900210B462946FDF72B
:102A9000C4FC3A46069BFDF7BAFCDDE90223FDF7CC
:102AA000B6FCAAF11002C2E90001206AFDF725FE7A
:102AB000DDE90423FDF7B1FCCDE90001E069FDF794
:102AC0001CFE054676488030D0E918232846FDF7DD
:102AD000A4FC05460291A06980F00040FDF70DFEC0
:102AE0004A465B46FDF799FC2A46029BFDF78FFCA0
:102AF000DDE90023FDF78BFC04466948D0E90E238D
:102B00002046FDF7E3FB694CCAE900010022234699
:102B100031460898FDF71CFE05D2AAF120000021DD
:102B20002246C0E900125D4D002258352346D5E902
:102B30000001FDF70DFE03D25C490020C5E900014C
:102B400056460022D6E900012346FDF701FE03D2D6
:102B500056490020C6E90001504C554F4834002228
:102B6000D4E900013B46FDF7DBFD03D200203946E6
:102B7000C4E90001D5E9000100223B46FDF7D0FD84
:102B800003D24B490020C5E90001D6E9000100222B
:102B90003B46FDF7C5FD03D245490020C6E90001CB
:102BA0004449A046D1E900010CCCFDF730FC3D4C76
:102BB00007460291C4E90271AB463F480CCDD0E90B
:102BC00000512846FDF723FC814634480191C4E9B1
:102BD00004916830D0E900233848D0E900512846F4
:102BE000FDF715FC82460091C4E906A1A4F1800519
:102BF000D5E91C01D8E90223FDF709FC02460B4682
:102C000038460299FDF703FCDFF89480D8E90223E7
:102C100016461F46FDF773FCC4E90801D5E91E01FD
:102C2000DBE90223FDF7F3FB02460B464846019918
:102C3000FDF7EDFB32463B46FDF761FCC4E90A01B6
:102C400016486830D0E90223D4E90001FDF7DFFB24
:102C500002460B4650460099FDF7D9FB32463B46EB
:102C6000FDF74DFC164EC4E90C017068FDF745FDFB
:102C7000D5E91023FDF7D1FB124F00223B46FDF7AB
:102C80004FFD28D27068FDF738FDD5E910231BE011
:102C9000000004C00000E03F0000E0BF6802002028
:102CA0001800002018010020040400200000144037
:102CB000000014C0C0010020C8010020D001002085
:102CC000E003002000005440FDF7A7FB0022A34BC7
:102CD000FDF73EFD0AD3D4E90223D5E91001FDF743
:102CE0009CFB00221346FDF71BFD0BD2D4E9020129
:102CF000D8E90223FDF791FBD5E91023FDF7E6FAA9
:102D0000C5E910013069FDF7F8FCD5E91223FDF79C
:102D100084FB00223B46FDF703FD0BD23069FDF733
:102D2000ECFCD5E91223FDF778FB00228B4BFDF775
:102D30000FFD0AD3D4E90423D5E91201FDF76DFB99
:102D400000221346FDF7ECFC0BD2D4E90401D8E9CC
:102D50000223FDF762FBD5E91223FDF7B7FAC5E9B7
:102D60001201F069FDF7C9FC4746D7E91423FDF7C6
:102D700054FB00227A4BFDF7D3FC0BD2F069FDF730
:102D8000BCFCD7E91423FDF748FB0022754BFDF787
:102D9000DFFC0AD3D4E90623D7E91401FDF73DFB94
:102DA00000221346FDF7BCFC0BD2D7E90223D4E97D
:102DB0000601FDF732FBD7E91423FDF787FAC7E9CF
:102DC0001401D7E912010022674BFDF7A9FC11D2CB
:102DD0000020C5E91000C5E9120065496348C7E94C
:102DE00014010020C5E91400C5E91600C5E91A0060
:102DF000C5E918005F49D1E9000102460B46FDF71D
:102E00000CFB89465B4980463039D1E90001024616
:102E10000B46FDF702FB42464B46FDF757FA4FF0D3
:102E2000FF32FDF7DBFB544A544BC5E90C01FDF7BB
:102E30008FFC03D251495048C5E90C01D5E90C017A
:102E400000224F4BFDF742FAD7E91223FDF7E5FACE
:102E5000C7E904017068FDF750FCD5E91023FDF7C0
:102E6000DCFA81468B46B068FDF747FCD4E90823BD
:102E7000FDF7D3FA804630688A4680F00040FDF7BF
:102E80003CFCD4E90223FDF7C8FA42465346FDF75D
:102E9000BEFA4A465B46FDF7BAFAC7E90601306951
:102EA000FDF72BFCD5E91223FDF7B7FA81468A46D8
:102EB0007069FDF722FCD4E90A23FDF7AEFA054656
:102EC000F068884680F00040FDF717FCD4E9042341
:102ED000FDF7A3FA2A464346FDF799FA4A465346B8
:102EE000FDF795FAC7E90801F069FDF706FCD7E997
:102EF0001423FDF792FA81468A46306AFDF7FDFBFE
:102F0000D4E90C23FDF789FA8046B0690D4680F0BC
:102F10000040FDF7F2FBD4E90623FDF77EFA4246B6
:102F20002B46FDF774FA4A465346FDF770FA002225
:102F3000144BC7E90A01FDF70BFC03D2114900202D
:102F4000C7E90A0102F064FEFDF792FD0BB02021F3
:102F5000BDE8F04F0C48FEF7D9BB0000000054C09C
:102F600000004940000049C000004440F0D4C8536C
:102F7000FB21F93F500200209A9999999999B93FFC
:102F80000000F03F00002E40000801402DE9FF4105
:102F90000022414B414F0D460646144602EB4200CB
:102FA00003EB800143F820404C608C6047F82040E0
:102FB00007EB8000521C44608460032AEEDB384833
:102FC00018604FF0785098603649D9604FF07C50C7
:102FD00035495860C3E90401344898613448C3E96D
:102FE00007043448C7E903043860FEF735FCFEF7F0
:102FF000EBFD01210846FFF7A9F801210846FFF77C
:103000007BF8ADF80460ADF800504FF08047ADF8A4
:103010000640ADF802406946384601F013FE012132
:10302000384600F07BFA01221146384600F056FE81
:103030000121384600F0E2FA4FF4C060FFF736F89D
:103040001C208DF80C0001208DF80D008DF80E006D
:103050008DF80F0003A8FEF7D9FF681C761C70439B
:10306000FDF7DCFA0022144BFDF749FA134DC5E9D0
:10307000020102F097FED5E90E1205F18000C0E9C9
:103080000612D5E90C12C0E90212D5E91012C0E906
:1030900004122C70BDE8FF81E0030020040400202E
:1030A00000007041000090419A99193E0000404193
:1030B0000000C04000004040882A914118000020D4
:1030C000F0B50C46054689B001210220FFF714F83F
:1030D00001210820FFF73AF801210420FFF736F814
:1030E000C020ADF80C003D4F04268DF80F6003A9F9
:1030F0003846FEF7F5F9C0213846FEF707FB0320F6
:10310000ADF80C00364F8DF80F6003A93846FEF776
:10311000E7F903213846FEF7F9FAADF8104000242C
:10312000304FADF81450ADF81640ADF8124004A978
:10313000384601F087FD0125ADF80040ADF8045098
:10314000ADF80240ADF80640ADF808406946384693
:1031500000F04AFCADF80060ADF80450ADF8024054
:10316000ADF80640ADF808406946384600F03CFC32
:103170000820ADF80000ADF80450ADF80240ADF8FD
:103180000640ADF808406946384600F02DFC0C209A
:10319000ADF80000ADF80450ADF80240ADF80640BF
:1031A000ADF808406946384600F01EFC1D208DF839
:1031B0001C008DF81D408DF81E408DF81F5007A88B
:1031C000FEF724FF01221E21384600F087FD012171
:1031D000384600F013FA09B0F0BD000000080140C5
:1031E000000C0140000400402DE9F0415B4F5C4DB4
:1031F0004FF6FF7638784FF0000400061ED4022107
:10320000284600F06BFBC8B10221284600F086F981
:1032100038784006284629D500F066FAF880B98843
:10322000884201D2BE6200E0BC62401AB96A08441A
:1032300078613C700021284600F0AAFE78780006EC
:1032400027D40421284600F049FB10B30421284666
:1032500000F064F978784006284632D500F0A0FAEC
:103260007881398988420AD2FE6209E000F03CFA8E
:10327000B8803878022140F040003870DBE7FC620B
:10328000401AF96A0844B8617C700021284600F0B1
:10329000AFFFB878000627D40821284600F01EFBAF
:1032A00010B30821284600F039F9B87840062846BE
:1032B00033D500F0B3FAF881B98988420AD23E6367
:1032C00009E000F06DFA38817878022140F0400082
:1032D0007870DBE73C63401A396B0844F861BC70D6
:1032E0000021284601F0D8F8F878000633D41021E0
:1032F000284600F0F3FA00282DD01021284600F0CF
:103300000DF9F878400628461CD500F0B7FA788207
:10331000398A88420AD27E6309E000F07FFAB881D8
:10332000B878022140F04000B870DAE77C63401AB8
:10333000796B08443862FC7000212846BDE8F041F2
:1033400001F0B2B900F09AFA3882F878022140F020
:103350004000F870F1E7BDE8F08100007001002046
:103360000004004030B50D46044689B00121042018
:10337000FEF7C2FE01210C20FEF7E8FE4FF470724A
:10338000ADF81C2018228DF81F2003208DF81E0098
:1033900007A92548FEF7A4F8ADF810500020ADF8B5
:1033A0001440224DADF81600ADF8120004A92846CD
:1033B00001F048FC7020ADF800000120ADF80200DB
:1033C0000220ADF808004FF42F74ADF806406946AE
:1033D000284600F001FDADF806406946284600F099
:1033E00041FE0821284600F053FFADF8064069462B
:1033F000284600F09DFF0821284601F08DF8ADF821
:1034000006406946284601F0C3F80821284601F025
:103410008BF90121284600F00BF80121284600F025
:10342000EDF809B030BD0000000C0140000800407C
:1034300070B5044624480D46844234D0B4F1804F20
:1034400031D0224884422ED0214884422BD02148BA
:10345000844228D02048844225D02048844222D06B
:103460001F4884421FD01F4884421CD01E488442FB
:1034700019D01E48844216D01D48844213D01D48DE
:10348000844210D01C4884420DD01C4884420AD08B
:103490001B48844207D01B48844204D040F2845128
:1034A00019A002F011FB55B1012D04D040F2855155
:1034B00015A002F009FB208840F0800002E020887F
:1034C00020F08000208070BD002C014000040040EE
:1034D00000080040000C00400010004000140040B4
:1034E00000340140004C01400050014000540140B4
:1034F00000180040001C0040002000400040014037
:1035000000440140004801407372635C73746D3382
:1035100032663130785F74696D2E630070B5044691
:1035200021480D46844234D0B4F1804F31D01F4839
:1035300084422ED01E4884422BD01E48844228D07C
:103540001D48844225D01D48844222D01C48844214
:103550001FD01C4884421CD01B48844219D01B48F1
:10356000844216D01A48844213D01A48844210D09C
:10357000194884420DD0194884420AD01848844220
:1035800007D01848844204D040F6772116A002F0F4
:103590009BFA280A00D125B940F6782112A002F042
:1035A00093FAE843208270BD002C014000040040E3
:1035B00000080040000C00400010004000140040D3
:1035C00000340140004C01400050014000540140D3
:1035D00000180040001C0040002000400040014056
:1035E00000440140004801407372635C73746D33A2
:1035F00032663130785F74696D2E630070B50446B1
:1036000024480D46844234D0B4F1804F31D0224852
:1036100084422ED0214884422BD02148844228D095
:103620002048844225D02048844222D01F4884422A
:103630001FD01F4884421CD01E48844219D01E4807
:10364000844216D01D48844213D01D48844210D0B5
:103650001C4884420DD01C4884420AD01B48844236
:1036600007D01B48844204D040F2293119A002F04F
:103670002BFA55B1012D04D040F22A3115A002F0E9
:1036800023FA208840F0010002E0208820F00100A9
:10369000208070BD002C0140000400400008004064
:1036A000000C0040001000400014004000340140B5
:1036B000004C0140005001400054014000180040FF
:1036C000001C004000200040004001400044014038
:1036D000004801407372635C73746D33326631303D
:1036E000785F74696D2E630010B5044619488442F2
:1036F0002ED0B4F1804F2BD01748844228D01748E1
:10370000844225D01648844222D0164884421FD0D5
:10371000154884421CD01548844219D0144884426C
:1037200016D01448844213D01348844210D0134852
:1037300084420DD0124884420AD01248844207D0F5
:103740001148844204D040F69C1110A002F0BCF94C
:10375000A08E10BD002C0140000400400008004075
:10376000000C004000340140004C0140005001407A
:103770000054014000180040001C004000200040A0
:103780000040014000440140004801407372635C06
:1037900073746D3332663130785F74696D2E6300F7
:1037A00010B50446104884421CD0B4F1804F19D0A3
:1037B0000E48844216D00E48844213D00D488442ED
:1037C00010D00D4884420DD00C4884420AD00C48D9
:1037D000844207D00B48844204D040F6A9110AA0C5
:1037E00002F072F9208F10BD002C0140000400404F
:1037F00000080040000C004000340140004C014033
:1038000000180040004001407372635C73746D33B4
:1038100032663130785F74696D2E630010B50446EE
:103820000C48844213D0B4F1804F10D00A4884422F
:103830000DD00A4884420AD00948844207D009487A
:10384000844204D040F6B61107A002F03DF9A08FE3
:1038500010BD0000002C01400004004000080040A2
:10386000000C0040003401407372635C73746D336C
:1038700032663130785F74696D2E630010B504468E
:103880000C48844213D0B4F1804F10D00A488442CF
:103890000DD00A4884420AD00948844207D009481A
:1038A000844204D040F6C31107A002F00DF9B4F829
:1038B000400010BD002C0140000400400008004002
:1038C000000C0040003401407372635C73746D330C
:1038D00032663130785F74696D2E630070B50446CE
:1038E0002C4800260D46844234D0B4F1804F31D0AC
:1038F000294884422ED0294884422BD0284884422B
:1039000028D02848844225D02748844222D02748FE
:1039100084421FD0264884421CD02648844219D0B5
:103920002548844216D02548844213D02448844236
:1039300010D0244884420DD0234884420AD0234822
:10394000844207D02248844204D040F64D2121A071
:1039500002F0BAF8012D12D0022D10D0042D0ED095
:10396000082D0CD0102D0AD0202D08D0402D06D0C7
:10397000802D04D040F64E2116A002F0A5F8218A31
:10398000A089294200EA050001D000B10126304695
:1039900070BD0000002C0140000400400008004001
:1039A000000C0040001000400014004000340140B2
:1039B000004C0140005001400054014000180040FC
:1039C000001C004000200040004001400044014035
:1039D000004801407372635C73746D33326631303A
:1039E000785F74696D2E63002DE9F84F04460888EE
:1039F0000D4650B1042808D0082806D00C2804D061
:103A000040F24E21A2A002F05FF8A888012808D059
:103A1000022806D0032804D040F24F219CA002F0D7
:103A200053F8E88850B1042808D0082806D00C289C
:103A300004D04FF4147196A002F046F828890F289C
:103A400004D940F2512192A002F03EF8DFF85482EE
:103A5000954E964FDFF85892DFF858A24FF0804B02
:103A6000444509D0544507D05C4505D0B44203D045
:103A7000BC4201D04C4506D1688878B102280DD0EF
:103A800040F2562107E0688840B1022806D00A2893
:103A900004D040F25A217EA002F016F82888864908
:103AA000864A874BF0B3042876D008287D487DD01D
:103AB00084420ED05C450CD0B4420AD0BC4208D03F
:103AC0004C4506D0544504D04FF41F7170A001F04E
:103AD000FBFF6888AA88B5F80880218C21F4805102
:103AE0002184A38B218C4FF6FF7E23F473430EEACF
:103AF00002221A430EEA083313436A4A0EEA003CD4
:103B0000CDF800C0944209D0544507D05C4505D09B
:103B1000B44203D0BC4201D04C457DD121F40050C9
:103B2000009900E003E0084340F48050A7E04445DA
:103B300026D05C4524D0B44222D0BC4220D04C4593
:103B40001ED054451CD08C421AD05E48844217D0F7
:103B50005D48844214D0944212D05C4884420FD015
:103B60005B4884420CD09C420AD05A48844207D019
:103B70005948844204D040F25E2145A001F0A4FFE0
:103B80002B89AA8869882046FEF7D2FBE98820465F
:103B9000BDE8F84F00F008BF444516D05C4514D08E
:103BA000B44212D0BC4210D04C4500E019E00CD019
:103BB00054450AD08C4208D0944206D09C4204D08E
:103BC0004FF41A7132A001F07FFF2B89AA8869880F
:103BD0002046FEF7E3FBE9882046BDE8F84F00F0F9
:103BE00053BF84420ED05C450CD0B4420AD0BC42D4
:103BF00008D04C4506D0544504D040F2722124A090
:103C000001F062FF6888B5F804802A89218C21F4CC
:103C100080712184A38B00E02CE0218C4FF6FF7C87
:103C20000CEA021223F0F30342EA08021A431D4B86
:103C30000CEA002E9C4209D0544507D05C4505D0C3
:103C4000B44203D0BC4201D04C4506D121F40070EF
:103C500040EA0E0040F4807004E021F4206101434A
:103C600041F48070A2832084E9882046BDE8F84FA3
:103C700000F060BF21F40241014341F48050A3836E
:103C80002084E9882046BDE8F84F00F095BF000089
:103C90007372635C73746D3332663130785F74694C
:103CA0006D2E6300002C014000040040000800401D
:103CB000000C004000340140004C0140001800405E
:103CC000004001400050014000540140001C0040F1
:103CD00000200040004401400048014070B5044607
:103CE000284816460D46844234D0B4F1804F31D076
:103CF000254884422ED0254884422BD02448844233
:103D000028D02448844225D02348844222D0234806
:103D100084421FD0224884421CD02248844219D0B9
:103D20002148844216D02148844213D0204884423E
:103D300010D0204884420DD01F4884420AD01F482A
:103D4000844207D01E48844204D040F26B311DA04B
:103D500001F0BAFE280A00D125B94FF45B7119A011
:103D600001F0B2FE4EB1012E04D040F26D3115A02B
:103D700001F0AAFEA089284301E0A089A843A08100
:103D800070BD0000002C014000040040000800400D
:103D9000000C0040001000400014004000340140BE
:103DA000004C014000500140005401400018004008
:103DB000001C004000200040004001400044014041
:103DC000004801407372635C73746D333266313046
:103DD000785F74696D2E63002DE9F05FDFF8649100
:103DE000DFF864A1DFF864B10D46044648452CD0E5
:103DF000B4F1804F29D05648844226D05548844299
:103E000023D05548844220D054451ED05348844284
:103E10001BD05348844218D05248844215D052488F
:103E2000844212D0514884420FD0514884420CD071
:103E30005C450AD04F48844207D04F48844204D0A2
:103E40004FF48E714DA001F03FFE288870B110280C
:103E50000CD020280AD0302808D0602806D070283E
:103E600004D040F21D1145A001F02EFE688830B14B
:103E7000012804D04FF48F7140A001F025FE28895D
:103E800030B1022804D040F21F113CA001F01CFE0A
:103E9000208C20F001002084218CA788208B2A8888
:103EA00020F0730042EA0008288921F002016E88A0
:103EB000084306434C4509D0544507D05C4505D01E
:103EC0002C48844202D02C48844233D1A88830B197
:103ED000042804D04FF49E7128A001F0F5FD6889F4
:103EE00030B1082804D040F23D1124A001F0ECFDCF
:103EF000E889B0F5007F05D020B14FF49F711FA075
:103F000001F0E2FDA889B0F5807F05D020B140F234
:103F10003F111AA001F0D8FD26F008016889AE888B
:103F2000084320F00400064327F44071A889EF8974
:103F300008430743A780A4F81880E888A086268451
:103F4000BDE8F09F002C01400034014000400140DA
:103F50000004004000080040000C0040004C0140FC
:103F6000005001400054014000180040001C004077
:103F70000020004000440140004801407372635C2F
:103F800073746D3332663130785F74696D2E6300FF
:103F900070B5044620480D4684422ED0B4F1804FBF
:103FA0002BD01E48844228D01D48844225D01D486D
:103FB000844222D01C4884421FD01C4884421CD01A
:103FC0001B48844219D01B48844216D01A488442A8
:103FD00013D01A48844210D0194884420DD0194891
:103FE00084420AD01848844207D01848844204D03A
:103FF00040F2117116A001F067FD35B1022D04D019
:1040000040F2127112A001F05FFD208C20F002003E
:104010002843208470BD0000002C014000040040B3
:1040200000080040000C004000340140004C0140FA
:10403000005001400054014000180040001C0040A6
:104040000020004000400140004401400048014081
:104050007372635C73746D3332663130785F746988
:104060006D2E63002DE9F05FDFF850A1DFF850B14D
:104070000D46044650451BD0B4F1804F18D051482E
:10408000844215D05048844212D0504884420FD008
:104090005C450DD04E4884420AD04E48844207D039
:1040A0004D48844204D040F26F114CA001F00CFD49
:1040B000288870B110280CD020280AD0302808D0C9
:1040C000602806D0702804D04FF4B87143A001F0E6
:1040D000FBFC688830B1012804D040F271113FA088
:1040E00001F0F2FC288930B1022804D04FF4B971F4
:1040F0003AA001F0E9FC208C20F010002084228CF2
:10410000A788208B2B884FF6FF7920F4E64109EA37
:10411000032343EA0108298922F0200209EA011158
:1041200011436A8809EA02160E43544501D05C45E2
:104130003BD1A88830B1042804D040F28F1127A0C9
:1041400001F0C2FC688930B1082804D04FF4C8716E
:1041500022A001F0B9FCE889B0F5007F05D020B1BC
:1041600040F291111DA001F0AFFCA889B0F5807F4D
:1041700005D020B14FF4C97118A001F0A5FC6989E0
:1041800026F0800209EA01111143AA8821F04001BA
:1041900009EA02160E43A98927F4406209EA81015F
:1041A0001143EA8909EA82070F43A780A4F818801F
:1041B000E88820872684BDE8F09F0000002C01409D
:1041C000003401400004004000080040000C0040A2
:1041D000004C014000180040004001407372635CD5
:1041E00073746D3332663130785F74696D2E63009D
:1041F00070B5044619480D4684421CD0B4F1804F76
:1042000019D01748844216D01648844213D0164855
:10421000844210D0154884420DD0154884420AD0FB
:104220001448844207D01448844204D04FF4E86113
:1042300012A001F049FC35B1022D04D040F24171C9
:104240000EA001F041FC208C4FF6FF7120F0200001
:1042500001EA05110143218470BD0000002C0140DA
:104260000004004000080040000C00400034014001
:10427000004C014000180040004001407372635C34
:1042800073746D3332663130785F74696D2E6300FC
:1042900070B5044619480D4684421CD0B4F1804FD5
:1042A00019D01748844216D01648844213D01648B5
:1042B000844210D0154884420DD0154884420AD05B
:1042C0001448844207D01448844204D040F202616A
:1042D00012A001F0F9FB082D05D025B140F20361D1
:1042E0000EA001F0F1FB208B4FF6FF7120F400606F
:1042F00001EA05210143218370BD0000002C01402B
:104300000004004000080040000C00400034014060
:10431000004C014000180040004001407372635C93
:1043200073746D3332663130785F74696D2E63005B
:104330002DE9F05FDFF838A1DFF838B10D4604460B
:10434000504512D0B4F1804F0FD04B4884420CD06E
:104350004A48844209D04A48844206D05C4504D089
:1043600040F2C11147A001F0AFFB288870B11028BE
:104370000CD020280AD0302808D0602806D0702819
:1043800004D04FF4E1713FA001F09EFB688830B18A
:10439000012804D040F2C3113AA001F095FB28890E
:1043A00030B1022804D04FF4E27136A001F08CFB4A
:1043B000208C20F480702084208CA788A18B2A88F0
:1043C00021F0730142EA010820F4007128894FF6B8
:1043D000FF7909EA00200843698809EA01260643B3
:1043E000544501D05C453BD1A88830B1042804D0A5
:1043F0004FF4F07123A001F067FB688930B1082801
:1044000004D040F2E1111FA001F05EFBE889B0F595
:10441000007F05D020B14FF4F1711AA001F054FBD8
:10442000A889B0F5807F05D020B140F2E31115A036
:1044300001F04AFB698926F4006209EA012111436F
:10444000AA8821F4806109EA02260E43A98927F48B
:10445000405209EA01111143EA8909EA02170F43A0
:10446000A780A4F81C80E888A0872684BDE8F09F78
:10447000002C0140003401400004004000080040CE
:10448000000C00407372635C73746D3332663130BC
:10449000785F74696D2E630070B5044614480D464C
:1044A000844213D0B4F1804F10D0124884420DD012
:1044B000114884420AD01148844207D010488442EF
:1044C00004D040F26F710FA001F0FEFA35B1022D59
:1044D00004D04FF4EE610BA001F0F6FA208C4FF6F9
:1044E000FF7120F4007001EA05210143218470BDB1
:1044F000002C01400004004000080040000C004077
:10450000003401407372635C73746D333266313012
:10451000785F74696D2E630070B5044612480D46CD
:10452000844213D0B4F1804F10D0104884420DD093
:104530000F4884420AD00F48844207D00E48844274
:1045400004D040F21A610DA001F0BEFA082D05D08A
:1045500025B140F21B6109A001F0B6FAA08B20F052
:1045600008002843A08370BD002C014000040040D7
:1045700000080040000C0040003401407372635C8E
:1045800073746D3332663130785F74696D2E6300F9
:104590002DE9F05FDFF8E8A0DFF8E8B00D4604464B
:1045A000504512D0B4F1804F0FD0374884420CD020
:1045B0003648844209D03648844206D05C4504D04F
:1045C0004FF4047133A001F07FFA288870B11028ED
:1045D0000CD020280AD0302808D0602806D07028B7
:1045E00004D040F211212BA001F06EFA688830B19E
:1045F000012804D040F2122126A001F065FA288992
:1046000030B1022804D040F2132122A001F05CFA5C
:10461000208C20F480502084218CA688A08B2B88AD
:104620004FF6FF7920F4E64209EA0327174321F405
:104630000052298909EA013111436A88544509EA7F
:10464000023040EA010801D05C450FD1A889B0F5DD
:10465000807F05D020B14FF40C710EA001F034FA28
:10466000AA8926F4804009EA82160643A680A78319
:10467000E888A4F84000A4F82080BDE8F09F00007E
:10468000002C0140003401400004004000080040BC
:10469000000C00407372635C73746D3332663130AA
:1046A000785F74696D2E630070B5044614480D463A
:1046B000844213D0B4F1804F10D0124884420DD000
:1046C000114884420AD01148844207D010488442DD
:1046D00004D040F29F710FA001F0F6F935B1022D20
:1046E00004D04FF4F4610BA001F0EEF9208C4FF6EA
:1046F000FF7120F4005001EA05310143218470BDAF
:10470000002C01400004004000080040000C004064
:10471000003401407372635C73746D333266313000
:10472000785F74696D2E630070B5044614480D46B9
:10473000844213D0B4F1804F10D0124884420DD07F
:10474000114884420AD01148844207D0104884425C
:1047500004D040F232610FA001F0B6F9082D05D067
:1047600025B140F233610BA001F0AEF9A08B4FF6FA
:10477000FF7120F4006001EA05210143A18370BDAF
:10478000002C01400004004000080040000C0040E4
:10479000003401407372635C73746D333266313080
:1047A000785F74696D2E630070B504461A480D4633
:1047B00084422ED0B4F1804F2BD01848844228D0A8
:1047C0001748844225D01748844222D01648844294
:1047D0001FD0164884421CD01548844219D0154871
:1047E000844216D01448844213D01448844210D016
:1047F000134884420DD0134884420AD012488442A0
:1048000007D01248844204D040F6F70110A001F00E
:104810005BF9A58670BD0000002C0140000400403B
:1048200000080040000C004000340140004C0140F2
:10483000005001400054014000180040001C00409E
:104840000020004000400140004401400048014079
:104850007372635C73746D3332663130785F746980
:104860006D2E630070B5044611480D4684421CD07D
:10487000B4F1804F19D00F48844216D00E488442BC
:1048800013D00E48844210D00D4884420DD00D48FC
:1048900084420AD00C48844207D00C48844204D099
:1048A00040F605110AA001F00FF9258770BD000040
:1048B000002C01400004004000080040000C0040B3
:1048C00000340140004C014000180040004001400D
:1048D0007372635C73746D3332663130785F746900
:1048E0006D2E630070B504460C480D46844213D00B
:1048F000B4F1804F10D00A4884420DD00948844258
:104900000AD00948844207D00848844204D040F6BF
:10491000131107A001F0D8F8A58770BD002C014045
:104920000004004000080040000C0040003401403A
:104930007372635C73746D3332663130785F74699F
:104940006D2E630070B504460D480D46844213D0A9
:10495000B4F1804F10D00B4884420DD00A488442F5
:104960000AD00A48844207D00948844204D040F65D
:10497000211108A001F0A8F8A4F8405070BD000073
:10498000002C01400004004000080040000C0040E2
:10499000003401407372635C73746D33326631307E
:1049A000785F74696D2E630070B5044623480D4628
:1049B00084422ED0B4F1804F2BD02148844228D09D
:1049C0002048844225D02048844222D01F48844277
:1049D0001FD01F4884421CD01E48844219D01E4854
:1049E000844216D01D48844213D01D48844210D002
:1049F0001C4884420DD01C4884420AD01B48844283
:104A000007D01B48844204D040F6341119A001F0AD
:104A10005BF855B1042D08D0082D06D00C2D04D01C
:104A200040F6351113A001F04FF8208B20F00C0058
:104A30002083208B2843208370BD0000002C014080
:104A40000004004000080040000C00400034014019
:104A5000004C01400050014000540140001800404B
:104A6000001C004000200040004001400044014084
:104A7000004801407372635C73746D333266313089
:104A8000785F74696D2E630070B504461C480D464E
:104A900084421CD0B4F1804F19D01A48844216D0F9
:104AA0001948844213D01948844210D018488442CF
:104AB0000DD0184884420AD01748844207D01748BE
:104AC000844204D040F64A1115A000F0FDFF55B114
:104AD000042D08D0082D06D00C2D04D040F64B1123
:104AE0000FA000F0F1FF208B20F440602083208B8A
:104AF0004FF6FF7101EA05210843208370BD0000D5
:104B0000002C01400004004000080040000C004060
:104B100000340140004C01400018004000400140BA
:104B20007372635C73746D3332663130785F7469AD
:104B30006D2E630070B5044615480D46844213D0AF
:104B4000B4F1804F10D0134884420DD012488442F3
:104B50000AD01248844207D01148844204D04FF44E
:104B6000166110A000F0B0FF55B1042D08D0082D3B
:104B700006D00C2D04D040F661110AA000F0A4FF6D
:104B8000A08B20F00C00A083A08B2843A08370BDD5
:104B9000002C01400004004000080040000C0040D0
:104BA000003401407372635C73746D33326631306C
:104BB000785F74696D2E630070B5044617480D4622
:104BC000844213D0B4F1804F10D0154884420DD0E8
:104BD000144884420AD01448844207D013488442BF
:104BE00004D040F6761112A000F06EFF55B1042DEE
:104BF00008D0082D06D00C2D04D040F677110CA05B
:104C000000F062FFA08B20F44060A083A08B4FF6E1
:104C1000FF7101EA05210843A08370BD002C01400B
:104C20000004004000080040000C00400034014037
:104C30007372635C73746D3332663130785F74699C
:104C40006D2E63002DE9F05F444FDFF81481DFF82B
:104C50001491DFF814A1DFF814B1454E0D46044657
:104C6000B8422ED0B4F1804F2BD0444529D04C45CA
:104C700027D0544525D05C4523D03E48844220D0DF
:104C8000B4421ED03C4884421BD03C48844218D0D9
:104C90003B48844215D03B48844212D03A48844273
:104CA0000FD03A4884420CD03948844209D0394860
:104CB000844206D03848844203D0E72137A000F070
:104CC00003FF688858B1102809D0202807D0402851
:104CD00005D0602803D0E82130A000F0F5FEE88878
:104CE00048B1B0F5807F06D0B0F5007F03D0E92150
:104CF0002AA000F0E9FE2088BC420AD0B44208D0C5
:104D0000B4F1804F05D0444503D04C4501D0544503
:104D100003D120F07001688808435C4506D015492E
:104D20008C4203D020F44071E88808432080A88892
:104D3000A08528882085BC420AD0B44208D01448F7
:104D4000844205D01348844202D01348844201D1E2
:104D5000287A20860120A082BDE8F09F002C014027
:104D60000004004000080040000C0040001000401B
:104D70000034014000140040004C0140005001404C
:104D80000054014000180040001C0040002000407A
:104D90000040014000440140004801407372635CE0
:104DA00073746D3332663130785F74696D2E6300D1
:104DB00070B586B0012144F20500FDF7C7F94FF444
:104DC000C060FDF773F925208DF8140000248DF8DC
:104DD00015408DF8164001208DF8170005A8FDF745
:104DE00015F94FF40070ADF8100002258DF812503F
:104DF00018201B4E8DF8130004A93046FCF770FBF9
:104E00006802ADF810008DF8125004208DF81300E0
:104E100004A93046FCF764FB4FF4E130ADF80440E0
:104E20000090ADF80640ADF80840ADF80C400C20FD
:104E30000C4CADF80A006946204600F08DFA0122BC
:104E400040F22551204600F007FA0121204600F0EB
:104E5000E3F84021204600F03BF806B070BD0000AA
:104E6000000801400038014070B5174C40F225554C
:104E70002946204600F06AF958B12946204600F03C
:104E800071F8204600F03AFB1049C0B20871FCF7F7
:104E9000E5F840F227752946204600F057F918B189
:104EA0002946204600F05EF840F226652946204655
:104EB00000F04CF9002805D029462046BDE8704096
:104EC00000F050B870BD000000380140B001002073
:104ED0002DE9F041184E194FDFF864800D46044665
:104EE000B0420ED0BC420CD044450AD01548844292
:104EF00007D01548844204D040F29E3113A000F040
:104F0000E3FD35F4587000D125B940F29F310FA070
:104F100000F0DAFDA8050AD5B44208D0BC4206D09C
:104F2000444504D040F2A33108A000F0CDFDE84391
:104F30002080BDE8F08100000038014000440040BE
:104F400000480040004C0040005000407372635C19
:104F500073746D3332663130785F75736172742E9D
:104F6000630000002DE9F047204EDFF88480DFF871
:104F700084900D460446B0420ED044450CD04C45BA
:104F80000AD01D48844207D01C48844204D040F215
:104F90000A411BA000F098FDA5F5C06040F66A1715
:104FA00026380ED0A5F5A06025380AD0A5F50060FA
:104FB000463806D0BD4204D040F20B4110A000F0AC
:104FC00083FDBD420AD1B44208D0444506D04C45C9
:104FD00004D040F20F410AA000F076FD290A01201A
:104FE0008840C0432080BDE8F087000000380140C1
:104FF0000044004000480040004C00400050004089
:105000007372635C73746D3332663130785F7573BD
:105010006172742E6300000070B5044612480D469C
:10502000844210D0114884420DD0114884420AD0E5
:105030001048844207D01048844204D04FF4B17124
:105040000EA000F041FD55B1012D04D040F26311D6
:105050000AA000F039FDA08940F4005002E0A089C8
:1050600020F40050A08170BD003801400044004091
:1050700000480040004C0040005000407372635CE8
:1050800073746D3332663130785F75736172742E6C
:10509000630000002DE9F047214F0026DFF88480EF
:1050A000DFF884900C460546B8420ED045450CD03A
:1050B0004D450AD01D48854207D01D48854204D081
:1050C00040F26E311BA000F0FFFC012C21D0802C9F
:1050D0001FD0402C1DD0202C1BD0102C19D0B4F583
:1050E000807F16D0B4F5007F08D0082C11D0042C96
:1050F0000FD0022C0DD040F26F3107E0BD4208D036
:10510000454506D04D4504D040F2733109A000F06A
:10511000DBFC2888204200D001263046BDE8F0871D
:10512000003801400044004000480040004C00406E
:10513000005000407372635C73746D3332663130BB
:10514000785F75736172742E630000002DE9F0477B
:10515000DFF8D8800026DFF8D890DFF8D8A00C461A
:10516000054640450ED04D450CD055450AD0324835
:10517000854207D03148854204D040F2C13130A089
:1051800000F0A2FC282C32D0A4F5E06040F66A17AB
:1051900027381FD0A4F5C06026381BD0A4F5A06026
:1051A000253817D0A4F58060243813D0A4F500600A
:1051B00046380FD0BC420DD0B4F5587F17D0B4F5A7
:1051C000187F14D0B4F5B07F11D040F2C2311CA0CA
:1051D00000F07AFCBC420AD1454508D04D4506D0C6
:1051E000554504D040F2C63115A000F06DFC04F026
:1051F0001F020123C4F3421103FA02F0012910D067
:10520000022910D0A98A4FEA142203FA02F32A884D
:10521000014202EA030201D002B101263046BDE894
:10522000F087A989EFE7298AEDE7000000380140FF
:105230000044004000480040004C00400050004046
:105240007372635C73746D3332663130785F75737B
:105250006172742E630000002DE9F047DFF8CC8006
:10526000DFF8CC90DFF8CCA016460C46054640454A
:105270000ED04D450CD055450AD02F48854207D059
:105280002E48854204D040F289112DA000F01CFC6C
:1052900040F66A17282C1CD0A4F5E060273818D0F7
:1052A000A4F5C060263814D0A4F5A060253810D02D
:1052B000A4F5806024380CD0A4F50060463808D0EE
:1052C000BC4206D0602C04D04FF4C5711CA000F085
:1052D000FBFB36B1012E04D040F28B1118A000F078
:1052E000F3FBBC420AD1454508D04D4506D0554593
:1052F00004D040F28F1112A000F0E6FB04F01F0270
:105300000120C4F342119040012906D0022906D0A1
:10531000143529682EB1014304E00C35F9E7103546
:10532000F7E781432960BDE8F087000000380140BD
:105330000044004000480040004C00400050004045
:105340007372635C73746D3332663130785F75737A
:105350006172742E630000002DE9F0435B4E5C4FD8
:10536000DFF8708185B00D460446B0420DD0BC42D6
:105370000BD0444509D05848844206D0574884424F
:1053800003D0B82156A000F09FFB28685A49401E60
:10539000884203D3B92152A000F096FBA8884FF4AD
:1053A000805928B1484503D0BA214DA000F08CFBAC
:1053B000E88858B1484509D0B0F5005F06D0B0F58F
:1053C000405F03D0BB2146A000F07EFB288948B196
:1053D000B0F5806F06D0B0F5C06F03D0BC2140A0FF
:1053E00000F072FB688930F00C0100D118B9BD21C2
:1053F0003BA000F069FBA889C0B1B0F5807F0BD05D
:10540000B0F5007F08D0B0F5407F05D0BE2134A0B4
:1054100000F05AFBA88948B1B44207D0BC4205D07D
:10542000444503D0C2212EA000F04EFB208A4CF64A
:10543000FF710840E98801432182A1894EF6F310EB
:105440000140A8882A8910436A890A431043A08131
:10545000A08A4FF6FF410840A9890143A18268460E
:10546000FCF79EFEB44201D1039800E00298A189A6
:10547000090400EBC00101EB0010296801D54900C7
:1054800000E08900B0FBF1F06422B0FBF2F1090109
:105490000B096FF018056B4300EB8300A3891D0413
:1054A0004FF0320306D503EBC000B0FBF2F000F082
:1054B000070005E003EB0010B0FBF2F000F00F0076
:1054C0000843208105B0BDE8F083000000380140AA
:1054D0000044004000480040004C004000500040A4
:1054E0007372635C73746D3332663130785F7573D9
:1054F0006172742E6300000020AA440010B50446B7
:105500000B48844210D00B4884420DD00A48844294
:105510000AD00A48844207D00948844204D04FF494
:10552000197108A000F0D0FAA088C0F3080010BDDF
:10553000003801400044004000480040004C00405A
:10554000005000407372635C73746D3332663130A7
:10555000785F75736172742E63000000FEE70000CF
:105560000FB4054B10B503A9044A029800F098F84F
:1055700010BC5DF814FB00002B5B00081802002033
:10558000490050EAC12018BF04204A0D18BF40F05E
:10559000010040F2FF72B2EB515F08BF40F0020021
:1055A000012808BF052070472DE9F0414F1E00EB90
:1055B000C7010446D1E9000115461E4637F0060230
:1055C0000DD02A463346FAF728FF7F1E04EBC703A7
:1055D000D3E90023FAF77AFE37F00602F1D1022F61
:1055E00025D0042F13D0062F18BFBDE8F0812A461E
:1055F0003346FAF712FFD4E90A23FAF767FE2A4680
:105600003346FAF70AFFD4E90823FAF75FFE2A4681
:105610003346FAF702FFD4E90623FAF757FE2A4683
:105620003346FAF7FAFED4E90423FAF74FFE2A4686
:105630003346FAF7F2FED4E90223FAF747FE2A4688
:105640003346FAF7EAFED4E90023BDE8F041FAF761
:105650003DBE0122FAF7C2BF002213461046114692
:10566000FAF74DBF024A00201107FAF7B7BF000052
:1056700001FDFFFF02E008C8121F08C1002AFAD18D
:1056800070477047002001E001C1121F002AFBD1C2
:105690007047000001490860704700001C020020AC
:1056A0002DE9FF4F8BB09A460F460546002606E0CF
:1056B00025280BD052460D9990476D1C761C2878F2
:1056C0000028F5D10FB03046BDE8F08F0024A04689
:1056D0000122604900E0044315F8013F203B02FA33
:1056E00003F00842F7D128782E2817D115F8010FBA
:1056F00044F004042A280ED06FF02F022878A0F17D
:10570000300109290AD808EB880102EB410100EBBE
:1057100001086D1CF2E757F8048B6D1C2878692886
:105720003ED006DC0028CDD063280BD0642804D1FD
:1057300036E0732810D075284BD052460D9990470B
:10574000761C85E017F8040B8DF8000000208DF81A
:105750000100E946012003E057F8049B4FF0FF30B9
:1057600061074FF0000401D40AE0641C44450DDADF
:105770008442FADB19F804100029F6D106E0641C13
:105780008442FCDB19F804100029F8D1264404E017
:1057900019F8010B52460D999047641EF8D257E054
:1057A00001CF4FF00A0B002802DA40422D2102E01F
:1057B000210504D52B218DF82410012103E0E107F8
:1057C00005D02021F7E70DF1200908910CE0002118
:1057D000F9E701CF4FF00A0BF9E75946FAF7ECFF6A
:1057E00001F1300209F8012D0028F6D1ADEB0900D6
:1057F00000F1200B600701D44FF00108D84502DD0D
:10580000A8EB0B0000E000208046002406E009A879
:105810005246005D0D999047641C761C089884429E
:10582000F5DB04E0302052460D999047761CB8F124
:105830000001A8F10108F5DC05E019F8010B52465A
:105840000D999047761CBBF10001ABF1010BF4DC24
:105850006D1C34E7092801002DE9F04D8D4F21F032
:10586000004A86B005460C46BA452ADBAAEB07007B
:1058700028430AD08848824501DC1AD1CDB106B050
:105880002846BDE8F04DFFF7E4BE844A844B284625
:10589000FAF7C3FD07460E46824A834B2846214647
:1058A000FAF7BBFD06B03A463346BDE8F04DFAF7CD
:1058B0000DBD0120FFF7EEFE06B0BDE8F04DFFF78D
:1058C000CBBE7A48824542DABAF1795F0BDA2846D4
:1058D000FFF756FE042808BFFFF7C4FE284606B0AF
:1058E0002146BDE8F08D2A460B461046FAF795FD95
:1058F000834602466E480E460B4606217844FFF763
:1059000053FE5A463346FAF788FD804669488A4670
:105910005A46334604217844FFF746FE5A4633463A
:10592000FAF77BFD00223B46FAF7D0FC02460B4615
:1059300040465146FAF7E3FD2A462346FAF76DFD45
:1059400006B02A462346BDE8F04DFAF7BFBC28460C
:1059500024F0004100223D463B46FAF75BFD4FF044
:10596000FF32FAF73BFE0646024653480F460B4607
:1059700006217844FFF718FE32463B46FAF74DFD04
:10598000CDE900014D4832463B4604217844FFF7FB
:105990000BFE32463B46FAF740FD00222B46FAF753
:1059A00095FC834602913046394600F0B9FA8046AC
:1059B00043480D46504517DCDDE900015A46029B7D
:1059C000FAF79DFD42462B46FAF727FD42462B4645
:1059D000FAF77CFC0122FAF701FE304A304BFAF765
:1059E00016FD304A304B4CE04FF0000A52460B4651
:1059F0004046FAF76BFCCDE9031052462B461046A1
:105A00001946FAF70AFD32463B46FAF703FDDDE98F
:105A10000332FAF774FD06460F46DDE900015A46E7
:105A2000029BFAF76CFD834600910122304639460D
:105A3000FAF7D4FD194A1A4BFAF7ECFC06460F4662
:105A4000012240462946FAF7C9FD5A46009BFAF75B
:105A5000E4FC32463B46FAF7DAFC06460F460122E2
:105A600050462946FAF7BAFD0E4DDFF858802A460F
:105A70004346FAF7CFFC32463B46FAF7CBFC2A46C0
:105A80004346FAF7C7FC002CD8BF81F0004106B0AE
:105A9000BDE8F08D0000F03F0000F07F075C14339C
:105AA00026A6913C182D4454FB21F93F0000E03F0D
:105AB0007006000086060000FA05000010060000CF
:105AC0003333EF3FFB21E93F0A46014601A0FFF7D0
:105AD00047FDFEE757726F6E6720706172616D65FA
